:020000040800F2
:10000000002800200119000891180008971800081E
:100010009D180008A3180008A91800080000000097
:10002000000000000000000000000000AF18000801
:10003000BB18000800000000C7180008D31800080B
:100040004919000849190008491900084919000808
:1000500049190008491900084919000849190008F8
:1000600049190008491900084919000849190008E8
:1000700049190008491900084919000849190008D8
:1000800049190008491900084919000849190008C8
:1000900049190008491900084919000849190008B8
:1000A00049190008491900084919000849190008A8
:1000B000E11800084919000800000000491900086B
:1000C000491900080000000000000000491900085C
:1000D000000000004919000849190008000000004C
:1000E00049190008491900084919000800000000D2
:1000F0000000000000000000000000000000000000
:0C01000000000000000000005FF808F1A3
:10010C0010B5054C237833B9044B13B10448AFF345
:10011C0000800123237010BD54000020000000005B
:10012C00782F000808B5034B1BB103490348AFF304
:10013C00008008BD0000000058000020782F000847
:10014C0080B582B000AF7860396000F025FC0346C2
:10015C00012B0BD17B681B685A1C7B681A607B686F
:10016C001B68622B02DD7B6801221A6000BF083716
:10017C00BD4680BD80B582B000AF7860396000F0BC
:10018C001DFC0346012B07D17B681B684FF47A7268
:10019C0002FB03F23B681A6000BF0837BD4680BD06
:1001AC0080B582B000AF78607B68092B00F280814B
:1001BC0001A252F823F000BFED010008350200083F
:1001CC007D020008C50200080D0300085503000855
:1001DC009D030008E50300082D04000875040008C1
:1001EC0000220221B44801F0ACFE00220421B248E6
:1001FC0001F0A7FE00220821AF4801F0A2FE002268
:10020C001021AD4801F09DFE00222021AA4801F0EA
:10021C0098FE00224021A84801F093FE0122802183
:10022C00A54801F08EFE43E101220221A24801F013
:10023C0088FE00220421A04801F083FE0022082140
:10024C009D4801F07EFE012210219B4801F079FEB1
:10025C0001222021984801F074FE01224021964889
:10026C0001F06FFE01228021934801F06AFE1FE12C
:10027C0000220221904801F064FE002204218E48E5
:10028C0001F05FFE012208218B4801F05AFE00228A
:10029C001021894801F055FE00222021864801F0EA
:1002AC0050FE01224021844801F04BFE00228021A7
:1002BC00814801F046FEFBE0002202217E4801F05D
:1002CC0040FE002204217C4801F03BFE0022082164
:1002DC00794801F036FE00221021774801F031FEFA
:1002EC0001222021744801F02CFE01224021724889
:1002FC0001F027FE002280216F4801F022FED7E09A
:10030C00012202216C4801F01CFE002204216A48E3
:10031C0001F017FE00220821674801F012FE0122AD
:10032C001021654801F00DFE01222021624801F0E8
:10033C0008FE00224021604801F003FE00228021CB
:10034C005D4801F0FEFDB3E0002202215A4801F0A5
:10035C00F8FD01220421584801F0F3FD0022082188
:10036C00554801F0EEFD00221021534801F0E9FD43
:10037C0001222021504801F0E4FD002240214E488A
:10038C0001F0DFFD002280214B4801F0DAFD8FE007
:10039C0000220221484801F0D4FD012204214648E4
:1003AC0001F0CFFD00220821434801F0CAFD0022D4
:1003BC001021414801F0C5FD002220213E4801F0EA
:1003CC00C0FD002240213C4801F0BBFD00228021F1
:1003DC00394801F0B6FD6BE000220221364801F0ED
:1003EC00B0FD00220421344801F0ABFD00220821AD
:1003FC00314801F0A6FD012210212F4801F0A1FD8A
:10040C00012220212C4801F09CFD012240212A4888
:10041C0001F097FD01228021274801F092FD47E071
:10042C0000220221244801F08CFD002204212248E4
:10043C0001F087FD002208211F4801F082FD0022F7
:10044C0010211D4801F07DFD002220211A4801F0E9
:10045C0078FD00224021184801F073FD0022802114
:10046C00154801F06EFD23E000220221124801F034
:10047C0068FD00220421104801F063FD00220821D0
:10048C000D4801F05EFD002210210B4801F059FDD2
:10049C0001222021084801F054FD00224021064889
:1004AC0001F04FFD00228021034801F04AFD00BFFE
:1004BC0000BF0837BD4680BD000C014080B582B03E
:1004CC0000AF78607B68092B00F2BC8101A252F866
:1004DC0023F000BF090500085D050008B105000800
:1004EC000506000859060008AD06000801070008BB
:1004FC0055070008A9070008FD07000800224FF463
:10050C008061D24801F01DFD00224FF40061CF48FC
:10051C0001F017FD00224FF48051CC4801F011FD81
:10052C0000224FF40051C94801F00BFD00224FF49A
:10053C008041C64801F005FD00224FF40041C3483C
:10054C0001F0FFFC01220121C14801F0FAFC79E124
:10055C0001224FF48061BD4801F0F3FC00224FF4FE
:10056C000061BA4801F0EDFC00224FF48051B7480D
:10057C0001F0E7FC01224FF40051B44801F0E1FC1A
:10058C0001224FF48041B14801F0DBFC01224FF411
:10059C000041AE4801F0D5FC01220121AC4801F02C
:1005AC00D0FC4FE100224FF48061A84801F0C9FC57
:1005BC0000224FF40061A54801F0C3FC01224FF466
:1005CC008051A24801F0BDFC00224FF400519F481D
:1005DC0001F0B7FC00224FF480419C4801F0B1FCC3
:1005EC0001224FF40041994801F0ABFC002201219B
:1005FC00974801F0A6FC25E100224FF48061934856
:10060C0001F09FFC00224FF40061904801F099FC2E
:10061C0000224FF480518D4801F093FC00224FF4DE
:10062C0000518A4801F08DFC01224FF4804187482B
:10063C0001F087FC01224FF40041844801F081FC59
:10064C0000220121824801F07CFCFBE001224FF4E6
:10065C0080617E4801F075FC00224FF400617B48FC
:10066C0001F06FFC00224FF48051784801F069FCD6
:10067C0001224FF40051754801F063FC01224FF444
:10068C008041724801F05DFC00224FF400416F483C
:10069C0001F057FC002201216D4801F052FCD1E021
:1006AC0000224FF48061694801F04BFC01224FF4A9
:1006BC000061664801F045FC00224FF4805163480C
:1006CC0001F03FFC00224FF40051604801F039FC6E
:1006DC0001224FF480415D4801F033FC00224FF4BD
:1006EC0000415A4801F02DFC00220121584801F02C
:1006FC0028FCA7E000224FF48061544801F021FC53
:10070C0001224FF40061514801F01BFC00224FF410
:10071C0080514E4801F015FC00224FF400514B481B
:10072C0001F00FFC00224FF48041484801F009FC15
:10073C0000224FF40041454801F003FC0022012146
:10074C00434801F0FEFB7DE000224FF480613F48FE
:10075C0001F0F7FB00224FF400613C4801F0F1FB83
:10076C0000224FF48051394801F0EBFB01224FF489
:10077C000051364801F0E5FB01224FF4804133482B
:10078C0001F0DFFB01224FF40041304801F0D9FBAE
:10079C00012201212E4801F0D4FB53E000224FF43A
:1007AC0080612A4801F0CDFB00224FF400612748FC
:1007BC0001F0C7FB00224FF48051244801F0C1FB2B
:1007CC0000224FF40051214801F0BBFB00224FF4F2
:1007DC0080411E4801F0B5FB00224FF400411B483C
:1007EC0001F0AFFB00220121194801F0AAFB29E01E
:1007FC0000224FF48061154801F0A3FB00224FF456
:10080C000061124801F09DFB00224FF480510F480B
:10081C0001F097FB00224FF400510C4801F091FBC2
:10082C0001224FF48041094801F08BFB00224FF468
:10083C000041064801F085FB00220121044801F02B
:10084C0080FB00BF00BF0837BD4680BD00080140DB
:10085C00000C014080B582B000AF786039603B6815
:10086C00002B03D03B68012B17D032E000224FF451
:10087C0080411A4801F065FB01224FF400411748F2
:10088C0001F05FFB7B68164A82FB03129210DB17A8
:10089C00D31A1846FFF712FE1BE001224FF48041D9
:1008AC000E4801F04EFB00224FF400410B4801F0C2
:1008BC0048FB7A680A4B83FB02139910D317C91AA9
:1008CC000B469B000B445B00D11A0846FFF7F6FD64
:1008DC0000BF00BF0837BD4680BD00BF000C014003
:1008EC006766666680B582B000AF786039603B6839
:1008FC00002B03D03B68012B17D032E000224FF4C1
:10090C0080511A4801F01DFB01224FF40051174889
:10091C0001F017FB7B68164A82FB03129210DB175F
:10092C00D31A1846FFF73CFC1BE001224FF4805110
:10093C000E4801F006FB00224FF400510B4801F069
:10094C0000FB7A680A4B83FB02139910D317C91A60
:10095C000B469B000B445B00D11A0846FFF720FCAA
:10096C0000BF00BF0837BD4680BD00BF000C014072
:10097C006766666680B400AF064B1B68012B04D11A
:10098C00044B00221A60012300E000231846BD46E8
:10099C0080BC70477000002080B400AF064B1B6811
:1009AC00012B04D1044B00221A60012300E0002328
:1009BC001846BD4680BC70477400002080B400AF60
:1009CC00064B1B68012B04D1044B00221A60012337
:1009DC0000E000231846BD4680BC7047780000201C
:1009EC0080B400AF034B01221A6000BFBD4680BC2F
:1009FC00704700BF7000002080B400AF034B012291
:100A0C001A6000BFBD4680BC704700BF7400002058
:100A1C0080B400AF034B01221A6000BFBD4680BCFE
:100A2C00704700BF7800002080B500AF5A4B1B68A0
:100A3C005A4A13605A4B1B68574A13600221594893
:100A4C0001F068FA03461A46554B1A60534B1A6864
:100A5C00514B1B689A4225D14F4B1A68504B1B685F
:100A6C009A421FD1504B1A684D4B1B689A420DD0BD
:100A7C004B4B1B684C4A1360494B1B68002B11D124
:100A8C00FFF7AEFF494B32221A600BE0474B1B6855
:100A9C00013B464A1360454B1B68002B02D1424B6D
:100AAC0001221A60424B1B68424A1360424B1B687E
:100ABC003F4A136004213B4801F02CFA03461A46C6
:100ACC003D4B1A603B4B1A68394B1B689A4225D137
:100ADC00374B1A68384B1B689A421FD1374B1A6830
:100AEC00354B1B689A420DD0334B1B68334A13604D
:100AFC00314B1B68002B11D1FFF77EFF304B32229C
:100B0C001A600BE02E4B1B68013B2D4A13602C4BDB
:100B1C001B68002B02D1294B01221A60294B1B6840
:100B2C00294A1360294B1B68264A136008211D486B
:100B3C0001F0F0F903461A46244B1A60224B1A684E
:100B4C00204B1B689A4225D11E4B1A681F4B1B6801
:100B5C009A421FD11E4B1A681C4B1B689A420DD02F
:100B6C001A4B1B681A4A1360184B1B68002B11D1C7
:100B7C00FFF74EFF174B32221A600BE0154B1B6828
:100B8C00013B144A1360134B1B68002B02D1104B12
:100B9C0001221A6000BF80BD04000020000000206C
:100BAC0008000020000801400C000020300000204C
:100BBC001400002010000020180000201C00002051
:100BCC0034000020240000202000002028000020F9
:100BDC002C0000203800002080B400AF314B1B6883
:100BEC00042B1AD0042B22DC022B02D0032B0AD0AC
:100BFC001DE02D4B1B68002B1BDD2B4B1B68013B99
:100C0C00294A136015E0294B1B68002B13DD274B79
:100C1C001B68013B254A13600DE0254B1B68002B1C
:100C2C000BDD234B1B68013B214A136005E000BF21
:100C3C0004E000BF02E000BF00E000BF1D4B1B68DA
:100C4C00042B1AD0042B22DC022B02D0032B0AD04B
:100C5C001DE0194B1B68002B1BDD174B1B68013B60
:100C6C00154A136015E0154B1B68002B13DD134B55
:100C7C001B68013B114A13600DE0114B1B68002BE4
:100C8C000BDD0F4B1B68013B0D4A136005E000BFE9
:100C9C0004E000BF02E000BF00E000BF00BFBD46A3
:100CAC0080BC704784000020A0000020B000002011
:100CBC00B400002088000020AC000020940000202C
:100CCC009800002080B400AF074B1B680133064A24
:100CDC001360054B1B68012B02DD034B00221A60CD
:100CEC0000BFBD4680BC70477C00002080B400AFC4
:100CFC00074B1B680133064A1360054B1B68012B1D
:100D0C0002DD034B00221A6000BFBD4680BC704759
:100D1C008000002080B500AFA14B1B68A14A136076
:100D2C00A14B1B68A14A1360A14B1B68A14A13601D
:100D3C00A14B1B68013B032B00F2A48001A252F8CB
:100D4C0023F000BF610D00089B0D0008ED0D00089D
:100D5C003F0E000801224021984801F0F2F80122D0
:100D6C002021964801F0EDF801221021934801F062
:100D7C00E8F8914B02221A608B4B1B68904A82FB5D
:100D8C0003129211DB17D31A8E4A136081E00022F2
:100D9C0040218A4801F0D5F801222021874801F032
:100DAC00D0F801221021854801F0CBF8854B1B6847
:100DBC00854A126811461846FFF794FD814B1B6853
:100DCC00002B61DC7C4B03221A60754B1B687C4A40
:100DDC0082FB03129211DB17D31A7C4A136053E087
:100DEC0001224021754801F0ACF801222021734802
:100DFC0001F0A7F800221021704801F0A2F8734B03
:100E0C001B68714A126811461846FFF76BFD6F4B51
:100E1C001B68002B3ADC684B04221A60644B1B687D
:100E2C00674A82FB03129211DB17D31A684A1360CC
:100E3C002CE001224021614801F083F8002220219E
:100E4C005E4801F07EF8012210215C4801F079F82F
:100E5C005F4B1B685C4A126811461846FFF742FD4F
:100E6C005B4B1B68002B13DC534B02221A604E4B5E
:100E7C001B68534A82FB03129211DB17D31A514A97
:100E8C00136005E000BF04E000BF02E000BF00E01B
:100E9C0000BF504B1B68013B032B00F2D08001A21A
:100EAC0052F823F0C10E0008F50F0008FF0E0008E1
:100EBC00570F000801224FF40071404801F041F82F
:100ECC0001224FF480713D4801F03BF80122802152
:100EDC003A4801F036F83F4B03221A60314B1B683D
:100EEC00374A82FB03129211DB17D31A3A4A13606A
:100EFC00ACE001224FF40071304801F022F80122DD
:100F0C004FF480712D4801F01CF8002280212B48F1
:100F1C0001F017F8304B1B68304A1268114618461E
:100F2C00FFF798FC2C4B1B68002B00F38A80294B95
:100F3C0004221A601F4B1B68214A82FB0312921178
:100F4C00DB17D31A264A13607BE001224FF40071A1
:100F5C001A4800F0F6FF00224FF48071174800F099
:100F6C00F0FF01228021154800F0EBFF1C4B1B68A1
:100F7C001A4A126811461846FFF76CFC184B1B688E
:100F8C00002B60DC134B02221A60084B1B680C4AC6
:100F9C0082FB03129211DB17D31A124A136052E030
:100FAC003C000020A4000020400000209C000020F9
:100FBC0044000020B80000208400002000080140FC
:100FCC00D34D6210A00000207C000020B000002057
:100FDC00B400002088000020940000208000002035
:100FEC0098000020AC00002000224FF4007118483B
:100FFC0000F0A7FF01224FF48071154800F0A1FF0B
:10100C0001228021124800F09CFF124B1B68124AEF
:10101C00126811461846FFF71DFC0E4B1B68002B7F
:10102C0013DC0E4B03221A600D4B1B680D4A82FB1E
:10103C0003129211DB17D31A0B4A136005E000BFA1
:10104C0004E000BF02E000BF00E000BF00BF80BDB5
:10105C0000080140AC000020800000208800002027
:10106C00A4000020D34D62109400002080B500AF86
:10107C00154B1B680E2B19D00E2B21DC0C2B02D020
:10108C000D2B0AD01CE04021104800F072FF4FF4E9
:10109C0000710E4800F06DFF13E010210B4800F0BA
:1010AC0068FF8021094800F064FF0AE0202107480E
:1010BC0000F05FFF4FF48071044800F05AFF00E02D
:1010CC0000BF00BF80BD00BF8C00002000080140A5
:1010DC0080B500AF8F4B1B68013B0D2B00F20E81CE
:1010EC0001A252F823F000BF2D11000809130008CB
:1010FC000913000809130008091300080913000854
:10110C000913000809130008091300080913000843
:10111C000913000859110008D711000855120008CE
:10112C00FFF7F8FDFFF726FC0346012B40F0E880A3
:10113C00784B0C221A60784B1B68784A82FB03129E
:10114C009211DB17D31A764A1360D9E001222021C1
:10115C00744800F0F6FE01221021724800F0F1FEF6
:10116C0001224FF480716F4800F0EBFE01228021C8
:10117C006C4800F0E6FE6A4B1B686B4A126811461D
:10118C001846FFF7AFFB694B1B6819460220FFF7A7
:10119C0061FB61496248FEF7D3FF5F496048FEF787
:1011AC00E9FFFFF7E7FB0346012B40F0AB80594BFF
:1011BC000D221A605E4B1B68584A82FB0312921177
:1011CC00DB17D31A5B4A13609CE00122202155489F
:1011DC0000F0B7FE01224021524800F0B2FE01227D
:1011EC004FF480714F4800F0ACFE01224FF40071B7
:1011FC004C4800F0A6FE4F4B1B684B4A1268114638
:10120C001846FFF76FFB494B1B6819460320FFF785
:10121C0021FB47494748FEF793FF45494548FEF7F0
:10122C00A9FFFFF7A7FB0346012B6DD1394B0E220B
:10123C001A60414B1B68394A82FB03129211DB176F
:10124C00D31A3E4A13605FE001224021354800F07A
:10125C0078FE01221021334800F073FE01224FF476
:10126C000071304800F06DFE012280212D4800F005
:10127C0068FE324B1B682C4A126811461846FFF761
:10128C0031FB2A4B1B6819460420FFF7E3FA2A4965
:10129C002A48FEF755FF28492848FEF76BFFFFF751
:1012AC0069FB0346012B31D11A4B01221A60244BE6
:1012BC0001221A60234B01221A6001224021194895
:1012CC0000F03FFE01222021164800F03AFE0122D8
:1012DC001021144800F035FE01224FF40071114822
:1012EC0000F02FFE01224FF480710E4800F029FE11
:1012FC00012280210B4800F024FE07E000BF06E02D
:10130C0000BF04E000BF02E000BF00E000BF00BF70
:10131C0080BD00BF8C00002040000020D34D621027
:10132C00C4000020000801407C0000208000002048
:10133C003C000020C000002044000020C800002019
:10134C00840000208800002080B500AF00F0F8FA7F
:10135C0000F046F800F0CCF800F07EF8164801F0EA
:10136C004DFA4FF47A720021144800F033F9FA2246
:10137C000021134800F02EF9FA220021114800F048
:10138C0029F964220021104800F024F9FA220021E6
:10139C000E4800F01FF90A2200210D4800F01AF93E
:1013AC000C4B01221A600C4B01221A600B4B0122D0
:1013BC001A6000F0CFF9FCE7CC000020E50B000828
:1013CC00D10C0008F90C0008DD1000087910000899
:1013DC00350A000884000020880000208C000020C2
:1013EC0080B590B000AF07F11803282200211846F1
:1013FC0001F0B4FD3B1D00221A605A609A60DA605D
:10140C001A610223BB610123BB621023FB62002320
:10141C007B6307F11803184600F0C4FD0346002B4C
:10142C0001D000F0D1F80F237B600023BB600023B8
:10143C00FB6000233B6100237B613B1D00211846B0
:10144C0001F030F80346002B01D000F0BDF800BFCE
:10145C004037BD4680BD000080B586B000AF07F1B7
:10146C00080300221A605A609A60DA603B46002238
:10147C001A605A601D4B4FF080421A601B4B41F6AC
:10148C003F725A60194B00229A60184B0922DA609D
:10149C00164B00221A61154B00229A61134801F079
:1014AC005DF90346002B01D000F08EF84FF4805309
:1014BC00BB6007F1080319460C4801F0DBFA034640
:1014CC00002B01D000F080F800233B6000237B60F0
:1014DC003B461946054801F0B3FC0346002B01D0EE
:1014EC0000F072F800BF1837BD4680BDCC0000205C
:1014FC0080B586B000AF07F1080300221A605A606D
:10150C009A60DA60284B9B69274A43F00403936185
:10151C00254B9B6903F004037B607B68224B9B6922
:10152C00214A43F0080393611F4B9B6903F00803A6
:10153C003B603B6800224FF6F0711C4800F001FD47
:10154C0000224FF2FF011A4800F0FBFC0E23BB6097
:10155C000023FB6001233B6107F108031946134884
:10156C0000F05EFB4FF6F073BB600123FB600023C1
:10157C003B6102237B6107F1080319460B4800F01D
:10158C004FFB4FF2FF03BB600123FB6000233B6169
:10159C0002237B6107F108031946054800F040FB64
:1015AC0000BF1837BD4680BD001002400008014046
:1015BC00000C014080B582B000AF786000F06AF892
:1015CC0000BF0837BD4680BD80B400AF72B600BF07
:1015DC00FEE7000080B485B000AFF860B9607A60B7
:1015EC00294B1B78632B4AD8274B1B781946274A63
:1015FC000B469B000B449B001344FA681A60224B69
:10160C001B781846BB68224AA2FB0323DA081F4941
:10161C0003469B0003449B000B4404331A601A4B93
:10162C001B7818467B681A4AA2FB0323DA08174971
:10163C0003469B0003449B000B4408331A60124B77
:10164C001B781946114A0B469B000B449B00134414
:10165C000C3300221A700C4B1A780B4B1B78194662
:10166C0010460A4A0B469B000B449B001344103354
:10167C001860054B1B780133DAB2034B1A7000BFAC
:10168C001437BD4680BC7047900000201401002028
:10169C00CDCCCCCC80B483B000AF00237B6048E0D1
:1016AC002A497A6813469B0013449B000B4404336D
:1016BC001B68002B13D025497A6813469B001344F2
:1016CC009B000B4404331B68591E20487A68134650
:1016DC009B0013449B0003440433196026E01B4910
:1016EC007A6813469B0013449B000B44083319681B
:1016FC0016487A6813469B0013449B00034404333A
:10170C00196012497A6813469B0013449B000B44E2
:10171C000C331B780133D8B20C497A6813469B0002
:10172C0013449B000B440C3302461A707B68013344
:10173C007B60074B1B781A467B689342B0DB00BF7B
:10174C0000BF0C37BD4680BC704700BF14010020A1
:10175C009000002080B582B000AF00237B602BE0AE
:10176C001B497A6813469B0013449B000B440C33B3
:10177C001B78002B1DD016497A6813469B00134426
:10178C009B000B440C331B78013BD8B210497A6890
:10179C0013469B0013449B000B440C3302461A70F7
:1017AC000B497A6813469B0013449B000B441B683F
:1017BC0098477B6801337B60064B1B781A467B6825
:1017CC009342CDDB00BF00BF0837BD4680BD00BFD4
:1017DC00140100209000002080B485B000AF154BA0
:1017EC009B69144A43F001039361124B9B6903F00C
:1017FC000103BB60BB680F4BDB690E4A43F080539F
:10180C00D3610C4BDB6903F080537B607B680A4B24
:10181C005B68FB60FB6823F0E063FB60FB6843F0F4
:10182C008063FB60044AFB68536000BF1437BD46FD
:10183C0080BC7047001002400000014080B584B0AD
:10184C0000AF78607B681B68B3F1804F13D10C4BF1
:10185C00DB690B4A43F00103D361094BDB6903F0ED
:10186C000103FB60FB68002200211C2000F0A1F9A1
:10187C001C2000F0BAF900BF1037BD4680BD00BF78
:10188C000010024080B400AFFEE780B400AFFEE76A
:10189C0080B400AFFEE780B400AFFEE780B400AFC9
:1018AC00FEE780B400AF00BFBD4680BC704780B47B
:1018BC0000AF00BFBD4680BC704780B400AF00BF16
:1018CC00BD4680BC704780B500AF00F07FF800BF0C
:1018DC0080BD000080B500AF024800F0DBFF00BF08
:1018EC0080BD00BFCC00002080B400AF00BFBD465F
:1018FC0080BC7047FFF7F8FF0B480C490C4A0023DB
:10190C0002E0D458C4500433C4188C42F9D3094AA9
:10191C00094C002301E013600432A242FBD301F016
:10192C00F9FAFFF711FD7047000000205400002069
:10193C00BC2F000854000020E8080020FEE700003F
:10194C0080B500AF084B1B68074A43F010031360C7
:10195C00032000F023F90F2000F008F8FFF73CFFFC
:10196C000023184680BD00BF0020024080B582B025
:10197C0000AF7860124B1A68124B1B7819464FF463
:10198C007A73B3FBF1F3B2FBF3F3184600F03BF9B7
:10199C000346002B01D001230EE07B680F2B0AD8E5
:1019AC00002279684FF0FF3000F003F9064A7B689B
:1019BC001360002300E0012318460837BD4680BDA4
:1019CC0048000020500000204C00002080B400AFE4
:1019DC00054B1B781A46054B1B681344034A1360CE
:1019EC0000BFBD4680BC704750000020E4080020BA
:1019FC0080B400AF024B1B681846BD4680BC7047D4
:101A0C00E408002080B485B000AF78607B6803F0F8
:101A1C000703FB600C4BDB68BB60BA684FF6FF0337
:101A2C001340BB60FB681A02BB68134343F0BF63EF
:101A3C0043F40033BB60044ABB68D36000BF143767
:101A4C00BD4680BC704700BF00ED00E080B400AF25
:101A5C00044BDB681B0A03F007031846BD4680BC29
:101A6C00704700BF00ED00E080B483B000AF0346C8
:101A7C00FB7197F90730002B0BDBFB7903F01F028E
:101A8C00064997F907305B09012000FA02F241F888
:101A9C00232000BF0C37BD4680BC704700E100E03E
:101AAC0080B483B000AF03463960FB7197F90730FF
:101ABC00002B0ADB3B68DAB20C4997F907301201AC
:101ACC00D2B20B4483F800230AE03B68DAB208492F
:101ADC00FB7903F00F03043B1201D2B20B441A76CC
:101AEC0000BF0C37BD4680BC704700BF00E100E072
:101AFC0000ED00E080B489B000AFF860B9607A60A6
:101B0C00FB6803F00703FB61FB69C3F10703042BBC
:101B1C0028BF0423BB61FB690433062B02D9FB6984
:101B2C00033B00E000237B614FF0FF32BB6902FAFC
:101B3C0003F3DA43BB681A407B699A404FF0FF31DC
:101B4C007B6901FA03F3D9437B680B4013431846B6
:101B5C002437BD4680BC704780B582B000AF78603A
:101B6C007B68013BB3F1807F01D301230FE00A4A6C
:101B7C007B68013B53600F214FF0FF30FFF790FF64
:101B8C00054B00229A60044B07221A60002318466A
:101B9C000837BD4680BD00BF10E000E080B582B0C4
:101BAC0000AF78607868FFF72DFF00BF0837BD469F
:101BBC0080BD80B586B000AF0346B9607A60FB7318
:101BCC0000237B61FFF742FF78617A68B968786916
:101BDC00FFF790FF024697F90F3011461846FFF7B2
:101BEC005FFF00BF1837BD4680BD80B582B000AF27
:101BFC000346FB7197F907301846FFF735FF00BF16
:101C0C000837BD4680BD80B582B000AF786078687B
:101C1C00FFF7A2FF034618460837BD4680BD0000FB
:101C2C0080B48BB000AF7860396000237B620023F6
:101C3C003B6248E101227B6A02FA03F3FB613B68D9
:101C4C001B68FA691340BB61BA69FB699A4240F0A0
:101C5C0037813B685B68A34A93425ED0A14A9342AA
:101C6C0075D8A14A934258D09F4A93426FD89F4A45
:101C7C00934252D09D4A934269D89D4A93424CD08C
:101C8C009B4A934263D89B4A934246D0994A9342CB
:101C9C005DD8122B2AD8122B59D801A252F823F056
:101CAC00271D0008011D0008131D0008551D000804
:101CBC005B1D00085B1D00085B1D00085B1D000818
:101CCC005B1D00085B1D00085B1D00085B1D000808
:101CDC005B1D00085B1D00085B1D00085B1D0008F8
:101CEC005B1D0008091D00081D1D0008824A934257
:101CFC0013D02CE03B68DB683B6229E03B68DB6877
:101D0C0004333B6224E03B68DB6808333B621FE032
:101D1C003B68DB680C333B621AE03B689B68002B2A
:101D2C0002D104233B6213E03B689B68012B05D175
:101D3C0008233B627B68FA691A6109E008233B625D
:101D4C007B68FA695A6103E000233B6200E000BF44
:101D5C00BB69FF2B01D87B6801E07B6804337B6196
:101D6C00BB69FF2B02D87B6A9B0002E07B6A083BB5
:101D7C009B003B617B691A680F213B6901FA03F3F5
:101D8C00DB431A40396A3B6901FA03F31A437B6956
:101D9C001A603B685B6803F08053002B00F0908066
:101DAC00564B9B69554A43F001039361534B9B6916
:101DBC0003F00103BB60BB68514A7B6A9B0802338A
:101DCC0052F82330FB607B6A03F003039B000F2265
:101DDC0002FA03F3DB43FA681340FB607B68494A61
:101DEC0093420DD07B68484A934207D07B68474AA0
:101DFC00934201D1022304E0032302E0012300E01B
:101E0C0000237A6A02F0030292009340FA681343AB
:101E1C00FB603B497B6A9B080233FA6841F823203C
:101E2C003B685B6803F48013002B06D0384B9A6830
:101E3C003749BB6913438B6006E0354B9A68BB6925
:101E4C00DB43334913408B603B685B6803F400133E
:101E5C00002B06D02E4BDA682D49BB691343CB609F
:101E6C0006E02B4BDA68BB69DB4329491340CB6096
:101E7C003B685B6803F40033002B06D0244B5A6894
:101E8C002349BB6913434B6006E0214B5A68BB697D
:101E9C00DB431F4913404B603B685B6803F48033A2
:101EAC00002B06D01A4B1A681949BB6913430B60F7
:101EBC0006E0174B1A68BB69DB43154913400B60EE
:101ECC007B6A01337B623B681A687B6A22FA03F3F4
:101EDC00002B7FF4AFAE00BF00BF2C37BD4680BCDB
:101EEC00704700BF000032100000311000002210BB
:101EFC000000211000001210000011100010024010
:101F0C000000014000080140000C0140001001409D
:101F1C000004014080B485B000AF78600B467B8034
:101F2C007B689A687B881340002B02D00123FB73DB
:101F3C0001E00023FB73FB7B18461437BD4680BCC5
:101F4C00704780B483B000AF78600B467B8013463B
:101F5C007B707B78002B03D07A887B681A6103E056
:101F6C007B881A047B681A6100BF0C37BD4680BCA5
:101F7C00704780B485B000AF78600B467B807B687F
:101F8C00DB68FB607A88FB6813401A04FB68D94352
:101F9C007B880B401A437B681A6100BF1437BD461F
:101FAC0080BC704780B586B000AF78607B68002B32
:101FBC0001D101236CE27B681B6803F00103002B49
:101FCC0000F08780924B5B6803F00C03042B0CD061
:101FDC008F4B5B6803F00C03082B12D18C4B5B68A6
:101FEC0003F48033B3F5803F0BD1894B1B6803F4AA
:101FFC000033002B6CD07B685B68002B68D101230D
:10200C0046E27B685B68B3F5803F06D1804B1B686A
:10201C007F4A43F4803313602EE07B685B68002BAF
:10202C000CD17B4B1B687A4A23F480331360784BBA
:10203C001B68774A23F4802313601DE07B685B6880
:10204C00B3F5A02F0CD1724B1B68714A43F480235B
:10205C0013606F4B1B686E4A43F4803313600BE0C4
:10206C006B4B1B686A4A23F480331360684B1B6804
:10207C00674A23F4802313607B685B68002B13D0C2
:10208C00FFF7B6FC386108E0FFF7B2FC02463B698B
:10209C00D31A642B01D90323FAE15D4B1B6803F4BB
:1020AC000033002BF0D014E0FFF7A2FC386108E0FD
:1020BC00FFF79EFC02463B69D31A642B01D903231C
:1020CC00E6E1534B1B6803F40033002BF0D100E026
:1020DC0000BF7B681B6803F00203002B63D04C4BE2
:1020EC005B6803F00C03002B0BD0494B5B6803F0CF
:1020FC000C03082B1CD1464B5B6803F48033002B7C
:10210C0016D1434B1B6803F00203002B05D07B68F0
:10211C001B69012B01D00123BAE13D4B1B6823F055
:10212C00F8027B685B69DB00394913430B603AE0CA
:10213C007B681B69002B20D0364B01221A60FFF7FD
:10214C0057FC386108E0FFF753FC02463B69D31A91
:10215C00022B01D903239BE12D4B1B6803F00203D7
:10216C00002BF0D02A4B1B6823F0F8027B685B69CC
:10217C00DB00274913430B6015E0264B00221A6045
:10218C00FFF736FC386108E0FFF732FC02463B698A
:10219C00D31A022B01D903237AE11D4B1B6803F0E0
:1021AC000203002BF0D17B681B6803F00803002BA3
:1021BC003AD07B689B69002B19D0174B01221A600F
:1021CC00FFF716FC386108E0FFF712FC02463B698A
:1021DC00D31A022B01D903235AE10D4B5B6A03F08E
:1021EC000203002BF0D0012000F09AFA1CE00A4BFD
:1021FC0000221A60FFF7FCFB38610FE0FFF7F8FBD9
:10220C0002463B69D31A022B08D9032340E100BFD5
:10221C000010024000004242800442429E4B5B6A26
:10222C0003F00203002BE9D17B681B6803F0040365
:10223C00002B00F0A6800023FB75974BDB6903F0A5
:10224C008053002B0DD1944BDB69934A43F08053A0
:10225C00D361914BDB6903F08053BB60BB680123F6
:10226C00FB758E4B1B6803F48073002B18D18B4BC2
:10227C001B688A4A43F480731360FFF7B9FB38611B
:10228C0008E0FFF7B5FB02463B69D31A642B01D972
:10229C000323FDE0814B1B6803F48073002BF0D00B
:1022AC007B68DB68012B06D17B4B1B6A7A4A43F0B7
:1022BC00010313622DE07B68DB68002B0CD1764B9D
:1022CC001B6A754A23F001031362734B1B6A724A33
:1022DC0023F0040313621CE07B68DB68052B0CD134
:1022EC006D4B1B6A6C4A43F0040313626A4B1B6A06
:1022FC00694A43F0010313620BE0674B1B6A664AA1
:10230C0023F001031362644B1B6A634A23F004033A
:10231C0013627B68DB68002B15D0FFF769FB386113
:10232C000AE0FFF765FB02463B69D31A41F288329B
:10233C00934201D90323ABE0574B1B6A03F0020312
:10234C00002BEED014E0FFF753FB38610AE0FFF7E7
:10235C004FFB02463B69D31A41F28832934201D9B2
:10236C00032395E04C4B1B6A03F00203002BEED1C8
:10237C00FB7D012B05D1484BDB69474A23F0805389
:10238C00D3617B68DB69002B00F08180424B5B687A
:10239C0003F00C03082B61D07B68DB69022B46D160
:1023AC003F4B00221A60FFF723FB386108E0FFF770
:1023BC001FFB02463B69D31A022B01D9032367E0AA
:1023CC00354B1B6803F00073002BF0D17B681B6A44
:1023DC00B3F5803F08D1304B5B6823F400327B6847
:1023EC009B682D4913434B602B4B5B6823F4741291
:1023FC007B68196A7B685B6A0B43274913434B6004
:10240C00274B01221A60FFF7F3FA386108E0FFF757
:10241C00EFFA02463B69D31A022B01D9032337E0AA
:10242C001D4B1B6803F00073002BF0D02FE01C4BEE
:10243C0000221A60FFF7DCFA386108E0FFF7D8FADF
:10244C0002463B69D31A022B01D9032320E0124B1D
:10245C001B6803F00073002BF0D118E07B68DB697C
:10246C00012B01D1012313E00B4B5B68FB60FB6874
:10247C0003F480327B681B6A9A4206D1FB6803F432
:10248C0070127B685B6A9A4201D0012300E0002342
:10249C0018461837BD4680BD001002400070004041
:1024AC006000424280B584B000AF786039607B68D0
:1024BC00002B01D10123D0E06A4B1B6803F007030A
:1024CC003A689A4210D9674B1B6823F0070265499A
:1024DC003B6813430B60634B1B6803F007033A68BC
:1024EC009A4201D00123B8E07B681B6803F0020319
:1024FC00002B20D07B681B6803F00403002B05D055
:10250C00594B5B68584A43F4E06353607B681B6823
:10251C0003F00803002B05D0534B5B68524A43F47D
:10252C0060535360504B5B6823F0F0027B689B68F0
:10253C004D4913434B607B681B6803F00103002B70
:10254C0040D07B685B68012B07D1474B1B6803F4B9
:10255C000033002B15D101237FE07B685B68022BD5
:10256C0007D1414B1B6803F00073002B09D10123E9
:10257C0073E03D4B1B6803F00203002B01D10123D8
:10258C006BE0394B5B6823F003027B685B68364970
:10259C0013434B60FFF72CFAF8600AE0FFF728FAB8
:1025AC000246FB68D31A41F28832934201D90323C5
:1025BC0053E02D4B5B6803F00C027B685B689B005F
:1025CC009A42EBD1274B1B6803F007033A689A42F7
:1025DC0010D2244B1B6823F0070222493B6813439B
:1025EC000B60204B1B6803F007033A689A4201D03A
:1025FC00012332E07B681B6803F00403002B08D036
:10260C00194B5B6823F4E0627B68DB681649134363
:10261C004B607B681B6803F00803002B09D0124B3E
:10262C005B6823F460527B681B69DB000E49134323
:10263C004B6000F021F802460B4B5B681B0903F062
:10264C000F030A49CB5C22FA03F3094A1360094BC6
:10265C001B681846FFF78AF9002318461037BD4649
:10266C0080BD00BF0020024000100240902F0008E7
:10267C00480000204C00002080B487B000AF00233D
:10268C00FB600023BB6000237B6100237B60002385
:10269C003B611E4B5B68FB60FB6803F00C03042B77
:1026AC0002D0082B03D027E0194B3B6127E0FB68D5
:1026BC009B0C03F00F03174AD35C7B60FB6803F49D
:1026CC008033002B10D0114B5B685B0C03F00103C3
:1026DC00114AD35CBB607B680D4A02FB03F2BB68FA
:1026EC00B2FBF3F37B6104E07B680C4A02FB03F35F
:1026FC007B617B693B6102E0054B3B6100BF3B6941
:10270C0018461C37BD4680BC704700BF0010024005
:10271C0000127A00A02F0008B02F000800093D001D
:10272C0080B485B000AF78600A4B1B680A4AA2FBE4
:10273C0003235B0A7A6802FB03F3FB6000BFFB68B0
:10274C005A1EFA60002BF9D100BF00BF1437BD46EA
:10275C0080BC704748000020D34D621080B582B019
:10276C0000AF78607B68002B01D1012341E07B68CE
:10277C0093F83D30DBB2002B06D17B68002283F846
:10278C003C207868FFF75AF87B68022283F83D20DA
:10279C007B681A687B6804331946104600F056FAB9
:1027AC007B68012283F846207B68012283F83E2057
:1027BC007B68012283F83F207B68012283F840204C
:1027CC007B68012283F841207B68012283F8422038
:1027DC007B68012283F843207B68012283F8442024
:1027EC007B68012283F845207B68012283F83D2019
:1027FC00002318460837BD4680BD000080B485B064
:10280C0000AF78607B6893F83D30DBB2012B01D0D0
:10281C00012335E07B68022283F83D207B681B682E
:10282C00DA687B681B6842F00102DA607B681B681F
:10283C00164A934209D07B681B68B3F1804F04D0D1
:10284C007B681B68124A934211D17B681B689B689A
:10285C0003F00703FB60FB68062B10D07B681B683A
:10286C001A687B681B6842F001021A6007E07B68FB
:10287C001B681A687B681B6842F001021A6000230F
:10288C0018461437BD4680BC704700BF002C014071
:10289C000004004080B584B000AF78607B681B6892
:1028AC00DB68FB607B681B681B69BB60BB6803F063
:1028BC000203002B20D0FB6803F00203002B1BD07B
:1028CC007B681B686FF002021A617B6801221A7721
:1028DC007B681B689B6903F00303002B03D07868AB
:1028EC0000F098F905E0786800F08BF9786800F052
:1028FC009AF97B6800221A77BB6803F00403002B5B
:10290C0020D0FB6803F00403002B1BD07B681B68F2
:10291C006FF004021A617B6802221A777B681B68CD
:10292C009B6903F44073002B03D0786800F072F9B4
:10293C0005E0786800F065F9786800F074F97B6858
:10294C0000221A77BB6803F00803002B20D0FB6829
:10295C0003F00803002B1BD07B681B686FF0080288
:10296C001A617B6804221A777B681B68DB6903F0A9
:10297C000303002B03D0786800F04CF905E078686D
:10298C0000F03FF9786800F04EF97B6800221A7766
:10299C00BB6803F01003002B20D0FB6803F010037E
:1029AC00002B1BD07B681B686FF010021A617B68D0
:1029BC0008221A777B681B68DB6903F44073002BD1
:1029CC0003D0786800F026F905E0786800F019F972
:1029DC00786800F028F97B6800221A77BB6803F04E
:1029EC000103002B0CD0FB6803F00103002B07D074
:1029FC007B681B686FF001021A617868FEF7DAFDDC
:102A0C00BB6803F08003002B0CD0FB6803F0800341
:102A1C00002B07D07B681B686FF080021A61786806
:102A2C0000F06FFABB6803F04003002B0CD0FB687E
:102A3C0003F04003002B07D07B681B686FF040024B
:102A4C001A61786800F0F8F8BB6803F02003002BDB
:102A5C000CD0FB6803F02003002B07D07B681B68AD
:102A6C006FF020021A61786800F042FA00BF10374C
:102A7C00BD4680BD80B584B000AF7860396000235E
:102A8C00FB737B6893F83C30012B01D10223B4E03B
:102A9C007B68012283F83C207B68022283F83D206E
:102AAC007B681B689B68BB60BB6823F07703BB60CB
:102ABC00BB6823F47F43BB607B681B68BA689A6071
:102ACC003B681B68B3F5005F3ED0B3F5005F00F2C6
:102ADC008780B3F5805F00F08680B3F5805F7FD888
:102AEC00702B1AD0702B7BD8602B50D0602B77D8E2
:102AFC00502B3CD0502B73D8402B58D0402B6FD838
:102B0C00302B64D0302B6BD8202B60D0202B67D887
:102B1C00002B5CD0102B5AD062E07B6818683B68A5
:102B2C0099683B685A683B68DB6800F06AF97B6817
:102B3C001B689B68BB60BB6843F07703BB607B681A
:102B4C001B68BA689A604FE07B6818683B689968A4
:102B5C003B685A683B68DB6800F053F97B681B687C
:102B6C009A687B681B6842F480429A603CE07B6800
:102B7C0018683B6859683B68DB681A4600F0CAF86D
:102B8C007B681B685021184600F021F92CE07B680B
:102B9C0018683B6859683B68DB681A4600F0E8F82F
:102BAC007B681B686021184600F011F91CE07B68FB
:102BBC0018683B6859683B68DB681A4600F0AAF84D
:102BCC007B681B684021184600F001F90CE07B681B
:102BDC001A683B681B681946104600F0F8F803E0C9
:102BEC000123FB7300E000BF7B68012283F83D20CA
:102BFC007B68002283F83C20FB7B18461037BD46CF
:102C0C0080BD80B483B000AF786000BF0C37BD4688
:102C1C0080BC704780B483B000AF786000BF0C37C5
:102C2C00BD4680BC704780B483B000AF786000BFF5
:102C3C000C37BD4680BC704780B483B000AF786061
:102C4C0000BF0C37BD4680BC7047000080B485B017
:102C5C0000AF786039607B681B68FB607B682B4A2F
:102C6C00934207D07B68B3F1804F03D07B68284A2E
:102C7C00934208D1FB6823F07003FB603B685B68F0
:102C8C00FA681343FB607B68204A934207D07B6849
:102C9C00B3F1804F03D07B681D4A934208D1FB6887
:102CAC0023F44073FB603B68DB68FA681343FB60FA
:102CBC00FB6823F080023B685B691343FB607B6815
:102CCC00FA681A603B689A687B68DA623B681A6833
:102CDC007B689A627B680D4A934203D13B681A6900
:102CEC007B681A637B6801225A617B681B6903F05D
:102CFC000103002B05D07B681B6923F001027B6864
:102D0C001A6100BF1437BD4680BC7047002C0140CF
:102D1C000004004080B487B000AFF860B9607A60FE
:102D2C00FB681B6A7B61FB681B6A23F00102FB6872
:102D3C001A62FB689B693B613B6923F0F0033B61C2
:102D4C007B681B013A6913433B617B6923F00A03DF
:102D5C007B617A69BB6813437B61FB683A699A6152
:102D6C00FB687A691A6200BF1C37BD4680BC70478D
:102D7C0080B487B000AFF860B9607A60FB681B6AFA
:102D8C007B61FB681B6A23F01002FB681A62FB680C
:102D9C009B693B613B6923F470433B617B681B037C
:102DAC003A6913433B617B6923F0A0037B61BB68E9
:102DBC001B017A6913437B61FB683A699A61FB6872
:102DCC007A691A6200BF1C37BD4680BC704780B45C
:102DDC0085B000AF786039607B689B68FB60FB68EE
:102DEC0023F07003FB603A68FB68134343F007035E
:102DFC00FB607B68FA689A6000BF1437BD4680BCE4
:102E0C00704780B487B000AFF860B9607A603B60FF
:102E1C00FB689B687B617B6923F47F437B613B6828
:102E2C001A027B681A43BB6813437A6913437B61AC
:102E3C00FB687A699A6000BF1C37BD4680BC70473E
:102E4C0080B485B000AF786039607B6893F83C3013
:102E5C00012B01D1022341E07B68012283F83C2045
:102E6C007B68022283F83D207B681B685B68FB60F3
:102E7C007B681B689B68BB60FB6823F07003FB607E
:102E8C003B681B68FA681343FB607B681B68FA6835
:102E9C005A607B681B68144A934209D07B681B6894
:102EAC00B3F1804F04D07B681B68104A93420CD15D
:102EBC00BB6823F08003BB603B685B68BA68134354
:102ECC00BB607B681B68BA689A607B68012283F8D8
:102EDC003D207B68002283F83C20002318461437E1
:102EEC00BD4680BC704700BF002C01400004004070
:102EFC0080B483B000AF786000BF0C37BD4680BC97
:102F0C00704780B483B000AF786000BF0C37BD460B
:102F1C0080BC704770B500260C4D0D4C641BA41082
:102F2C00A64209D100F022F800260A4D0A4C641B77
:102F3C00A410A64205D170BD55F8043B9847013644
:102F4C00EEE755F8043B98470136F2E7B42F00083A
:102F5C00B42F0008B42F0008B82F00080346024411
:102F6C00934200D1704703F8011BF9E7F8B500BF95
:102F7C00F8BC08BC9E467047F8B500BFF8BC08BC4E
:042F8C009E467047A6
:102F90000000000000000000010203040607080909
:102FA00002030405060708090A0B0C0D0E0F10108A
:042FB000010200001A
:042FB40031010008DF
:042FB8000D010008FF
:102FBC000100000001000000010000000100000001
:102FCC0001000000010000000100000001000000F1
:102FDC0001000000010000000100000001000000E1
:102FEC00320000003200000032000000B80B00007C
:102FFC0088130000D007000000127A0010000000B7
:04300C0001000000BF
:0400000508001901D5
:00000001FF
