:020000040800F2
:1000000000280020ED1800087D180008831800085B
:10001000891800088F1800089518000800000000D3
:100020000000000000000000000000009B18000815
:10003000A718000800000000B3180008BF18000847
:100040003519000835190008351900083519000858
:100050003519000835190008351900083519000848
:100060003519000835190008351900083519000838
:100070003519000835190008351900083519000828
:100080003519000835190008351900083519000818
:100090003519000835190008351900083519000808
:1000A00035190008351900083519000835190008F8
:1000B000CD180008351900080000000035190008A7
:1000C0003519000800000000000000003519000884
:1000D0000000000035190008351900080000000074
:1000E000351900083519000835190008000000000E
:1000F0000000000000000000000000000000000000
:0C01000000000000000000005FF808F1A3
:10010C0010B5054C237833B9044B13B10448AFF345
:10011C0000800123237010BD54000020000000005B
:10012C00642F000808B5034B1BB103490348AFF318
:10013C00008008BD0000000058000020642F00085B
:10014C0080B582B000AF7860396000F025FC0346C2
:10015C00012B0BD17B681B685A1C7B681A607B686F
:10016C001B68622B02DD7B6801221A6000BF083716
:10017C00BD4680BD80B582B000AF7860396000F0BC
:10018C001DFC0346012B07D17B681B684FF47A7268
:10019C0002FB03F23B681A6000BF0837BD4680BD06
:1001AC0080B582B000AF78607B68092B00F280814B
:1001BC0001A252F823F000BFED010008350200083F
:1001CC007D020008C50200080D0300085503000855
:1001DC009D030008E50300082D04000875040008C1
:1001EC0000220221B44801F0A2FE00220421B248F0
:1001FC0001F09DFE00220821AF4801F098FE00227C
:10020C001021AD4801F093FE00222021AA4801F0F4
:10021C008EFE00224021A84801F089FE0122802197
:10022C00A54801F084FE43E101220221A24801F01D
:10023C007EFE00220421A04801F079FE0022082154
:10024C009D4801F074FE012210219B4801F06FFEC5
:10025C0001222021984801F06AFE01224021964893
:10026C0001F065FE01228021934801F060FE1FE140
:10027C0000220221904801F05AFE002204218E48EF
:10028C0001F055FE012208218B4801F050FE00229E
:10029C001021894801F04BFE00222021864801F0F4
:1002AC0046FE01224021844801F041FE00228021BB
:1002BC00814801F03CFEFBE0002202217E4801F067
:1002CC0036FE002204217C4801F031FE0022082178
:1002DC00794801F02CFE00221021774801F027FE0E
:1002EC0001222021744801F022FE01224021724893
:1002FC0001F01DFE002280216F4801F018FED7E0AE
:10030C00012202216C4801F012FE002204216A48ED
:10031C0001F00DFE00220821674801F008FE0122C1
:10032C001021654801F003FE01222021624801F0F2
:10033C00FEFD00224021604801F0F9FD00228021E1
:10034C005D4801F0F4FDB3E0002202215A4801F0AF
:10035C00EEFD01220421584801F0E9FD002208219C
:10036C00554801F0E4FD00221021534801F0DFFD57
:10037C0001222021504801F0DAFD002240214E4894
:10038C0001F0D5FD002280214B4801F0D0FD8FE01B
:10039C0000220221484801F0CAFD012204214648EE
:1003AC0001F0C5FD00220821434801F0C0FD0022E8
:1003BC001021414801F0BBFD002220213E4801F0F4
:1003CC00B6FD002240213C4801F0B1FD0022802105
:1003DC00394801F0ACFD6BE000220221364801F0F7
:1003EC00A6FD00220421344801F0A1FD00220821C1
:1003FC00314801F09CFD012210212F4801F097FD9E
:10040C00012220212C4801F092FD012240212A4892
:10041C0001F08DFD01228021274801F088FD47E085
:10042C0000220221244801F082FD002204212248EE
:10043C0001F07DFD002208211F4801F078FD00220B
:10044C0010211D4801F073FD002220211A4801F0F3
:10045C006EFD00224021184801F069FD0022802128
:10046C00154801F064FD23E000220221124801F03E
:10047C005EFD00220421104801F059FD00220821E4
:10048C000D4801F054FD002210210B4801F04FFDE6
:10049C0001222021084801F04AFD00224021064893
:1004AC0001F045FD00228021034801F040FD00BF12
:1004BC0000BF0837BD4680BD000C014080B582B03E
:1004CC0000AF78607B68092B00F2BC8101A252F866
:1004DC0023F000BF090500085D050008B105000800
:1004EC000506000859060008AD06000801070008BB
:1004FC0055070008A9070008FD07000800224FF463
:10050C008061D24801F013FD00224FF40061CF4806
:10051C0001F00DFD00224FF48051CC4801F007FD95
:10052C0000224FF40051C94801F001FD00224FF4A4
:10053C008041C64801F0FBFC00224FF40041C34847
:10054C0001F0F5FC01220121C14801F0F0FC79E138
:10055C0001224FF48061BD4801F0E9FC00224FF408
:10056C000061BA4801F0E3FC00224FF48051B74817
:10057C0001F0DDFC01224FF40051B44801F0D7FC2E
:10058C0001224FF48041B14801F0D1FC01224FF41B
:10059C000041AE4801F0CBFC01220121AC4801F036
:1005AC00C6FC4FE100224FF48061A84801F0BFFC6B
:1005BC0000224FF40061A54801F0B9FC01224FF470
:1005CC008051A24801F0B3FC00224FF400519F4827
:1005DC0001F0ADFC00224FF480419C4801F0A7FCD7
:1005EC0001224FF40041994801F0A1FC00220121A5
:1005FC00974801F09CFC25E100224FF48061934860
:10060C0001F095FC00224FF40061904801F08FFC42
:10061C0000224FF480518D4801F089FC00224FF4E8
:10062C0000518A4801F083FC01224FF48041874835
:10063C0001F07DFC01224FF40041844801F077FC6D
:10064C0000220121824801F072FCFBE001224FF4F0
:10065C0080617E4801F06BFC00224FF400617B4806
:10066C0001F065FC00224FF48051784801F05FFCEA
:10067C0001224FF40051754801F059FC01224FF44E
:10068C008041724801F053FC00224FF400416F4846
:10069C0001F04DFC002201216D4801F048FCD1E035
:1006AC0000224FF48061694801F041FC01224FF4B3
:1006BC000061664801F03BFC00224FF48051634816
:1006CC0001F035FC00224FF40051604801F02FFC82
:1006DC0001224FF480415D4801F029FC00224FF4C7
:1006EC0000415A4801F023FC00220121584801F036
:1006FC001EFCA7E000224FF48061544801F017FC67
:10070C0001224FF40061514801F011FC00224FF41A
:10071C0080514E4801F00BFC00224FF400514B4825
:10072C0001F005FC00224FF48041484801F0FFFB2A
:10073C0000224FF40041454801F0F9FB0022012151
:10074C00434801F0F4FB7DE000224FF480613F4808
:10075C0001F0EDFB00224FF400613C4801F0E7FB97
:10076C0000224FF48051394801F0E1FB01224FF493
:10077C000051364801F0DBFB01224FF48041334835
:10078C0001F0D5FB01224FF40041304801F0CFFBC2
:10079C00012201212E4801F0CAFB53E000224FF444
:1007AC0080612A4801F0C3FB00224FF40061274806
:1007BC0001F0BDFB00224FF48051244801F0B7FB3F
:1007CC0000224FF40051214801F0B1FB00224FF4FC
:1007DC0080411E4801F0ABFB00224FF400411B4846
:1007EC0001F0A5FB00220121194801F0A0FB29E032
:1007FC0000224FF48061154801F099FB00224FF460
:10080C000061124801F093FB00224FF480510F4815
:10081C0001F08DFB00224FF400510C4801F087FBD6
:10082C0001224FF48041094801F081FB00224FF472
:10083C000041064801F07BFB00220121044801F035
:10084C0076FB00BF00BF0837BD4680BD00080140E5
:10085C00000C014080B582B000AF786039603B6815
:10086C00002B03D03B68012B17D032E000224FF451
:10087C0080411A4801F05BFB01224FF400411748FC
:10088C0001F055FB7B68164A82FB03129210DB17B2
:10089C00D31A1846FFF712FE1BE001224FF48041D9
:1008AC000E4801F044FB00224FF400410B4801F0CC
:1008BC003EFB7A680A4B83FB02139910D317C91AB3
:1008CC000B469B000B445B00D11A0846FFF7F6FD64
:1008DC0000BF00BF0837BD4680BD00BF000C014003
:1008EC006766666680B582B000AF786039603B6839
:1008FC00002B03D03B68012B17D032E000224FF4C1
:10090C0080511A4801F013FB01224FF40051174893
:10091C0001F00DFB7B68164A82FB03129210DB1769
:10092C00D31A1846FFF73CFC1BE001224FF4805110
:10093C000E4801F0FCFA00224FF400510B4801F074
:10094C00F6FA7A680A4B83FB02139910D317C91A6B
:10095C000B469B000B445B00D11A0846FFF720FCAA
:10096C0000BF00BF0837BD4680BD00BF000C014072
:10097C006766666680B400AF064B1B68012B04D11A
:10098C00044B00221A60012300E000231846BD46E8
:10099C0080BC70477000002080B400AF064B1B6811
:1009AC00012B04D1044B00221A60012300E0002328
:1009BC001846BD4680BC70477400002080B400AF60
:1009CC00064B1B68012B04D1044B00221A60012337
:1009DC0000E000231846BD4680BC7047780000201C
:1009EC0080B400AF034B01221A6000BFBD4680BC2F
:1009FC00704700BF7000002080B400AF034B012291
:100A0C001A6000BFBD4680BC704700BF7400002058
:100A1C0080B400AF034B01221A6000BFBD4680BCFE
:100A2C00704700BF7800002080B500AF5A4B1B68A0
:100A3C005A4A13605A4B1B68574A13600221594893
:100A4C0001F05EFA03461A46554B1A60534B1A686E
:100A5C00514B1B689A4225D14F4B1A68504B1B685F
:100A6C009A421FD1504B1A684D4B1B689A420DD0BD
:100A7C004B4B1B684C4A1360494B1B68002B11D124
:100A8C00FFF7AEFF494BC8221A600BE0474B1B68BF
:100A9C00013B464A1360454B1B68002B02D1424B6D
:100AAC0001221A60424B1B68424A1360424B1B687E
:100ABC003F4A136004213B4801F022FA03461A46D0
:100ACC003D4B1A603B4B1A68394B1B689A4225D137
:100ADC00374B1A68384B1B689A421FD1374B1A6830
:100AEC00354B1B689A420DD0334B1B68334A13604D
:100AFC00314B1B68002B11D1FFF77EFF304BC82206
:100B0C001A600BE02E4B1B68013B2D4A13602C4BDB
:100B1C001B68002B02D1294B01221A60294B1B6840
:100B2C00294A1360294B1B68264A136008211D486B
:100B3C0001F0E6F903461A46244B1A60224B1A6858
:100B4C00204B1B689A4225D11E4B1A681F4B1B6801
:100B5C009A421FD11E4B1A681C4B1B689A420DD02F
:100B6C001A4B1B681A4A1360184B1B68002B11D1C7
:100B7C00FFF74EFF174BC8221A600BE0154B1B6892
:100B8C00013B144A1360134B1B68002B02D1104B12
:100B9C0001221A6000BF80BD04000020000000206C
:100BAC0008000020000801400C000020300000204C
:100BBC001400002010000020180000201C00002051
:100BCC0034000020240000202000002028000020F9
:100BDC002C0000203800002080B400AF314B1B6883
:100BEC00042B1AD0042B22DC022B02D0032B0AD0AC
:100BFC001DE02D4B1B68002B1BDD2B4B1B68013B99
:100C0C00294A136015E0294B1B68002B13DD274B79
:100C1C001B68013B254A13600DE0254B1B68002B1C
:100C2C000BDD234B1B68013B214A136005E000BF21
:100C3C0004E000BF02E000BF00E000BF1D4B1B68DA
:100C4C00042B1AD0042B22DC022B02D0032B0AD04B
:100C5C001DE0194B1B68002B1BDD174B1B68013B60
:100C6C00154A136015E0154B1B68002B13DD134B55
:100C7C001B68013B114A13600DE0114B1B68002BE4
:100C8C000BDD0F4B1B68013B0D4A136005E000BFE9
:100C9C0004E000BF02E000BF00E000BF00BFBD46A3
:100CAC0080BC704784000020A0000020B000002011
:100CBC00B400002088000020AC000020940000202C
:100CCC009800002080B400AF074B1B680133064A24
:100CDC001360054B1B68012B02DD034B00221A60CD
:100CEC0000BFBD4680BC70477C00002080B400AFC4
:100CFC00074B1B680133064A1360054B1B68012B1D
:100D0C0002DD034B00221A6000BFBD4680BC704759
:100D1C008000002080B500AFA14B1B68A14A136076
:100D2C00A14B1B68A14A1360A14B1B68A14A13601D
:100D3C00A14B1B68013B032B00F2A48001A252F8CB
:100D4C0023F000BF610D00089B0D0008ED0D00089D
:100D5C003F0E000801224021984801F0E8F80122DA
:100D6C002021964801F0E3F801221021934801F06C
:100D7C00DEF8914B02221A608B4B1B68904A82FB67
:100D8C0003129211DB17D31A8E4A136081E00022F2
:100D9C0040218A4801F0CBF801222021874801F03C
:100DAC00C6F801221021854801F0C1F8854B1B685B
:100DBC00854A126811461846FFF794FD814B1B6853
:100DCC00002B61DC7C4B03221A60754B1B687C4A40
:100DDC0082FB03129211DB17D31A7C4A136053E087
:100DEC0001224021754801F0A2F80122202173480C
:100DFC0001F09DF800221021704801F098F8734B17
:100E0C001B68714A126811461846FFF76BFD6F4B51
:100E1C001B68002B3ADC684B04221A60644B1B687D
:100E2C00674A82FB03129211DB17D31A684A1360CC
:100E3C002CE001224021614801F079F800222021A8
:100E4C005E4801F074F8012210215C4801F06FF843
:100E5C005F4B1B685C4A126811461846FFF742FD4F
:100E6C005B4B1B68002B13DC534B02221A604E4B5E
:100E7C001B68534A82FB03129211DB17D31A514A97
:100E8C00136005E000BF04E000BF02E000BF00E01B
:100E9C0000BF504B1B68013B032B00F2D08001A21A
:100EAC0052F823F0C10E0008F50F0008FF0E0008E1
:100EBC00570F000801224FF40071404801F037F839
:100ECC0001224FF480713D4801F031F8012280215C
:100EDC003A4801F02CF83F4B03221A60314B1B6847
:100EEC00374A82FB03129211DB17D31A3A4A13606A
:100EFC00ACE001224FF40071304801F018F80122E7
:100F0C004FF480712D4801F012F8002280212B48FB
:100F1C0001F00DF8304B1B68304A12681146184628
:100F2C00FFF798FC2C4B1B68002B00F38A80294B95
:100F3C0004221A601F4B1B68214A82FB0312921178
:100F4C00DB17D31A264A13607BE001224FF40071A1
:100F5C001A4800F0ECFF00224FF48071174800F0A3
:100F6C00E6FF01228021154800F0E1FF1C4B1B68B5
:100F7C001A4A126811461846FFF76CFC184B1B688E
:100F8C00002B60DC134B02221A60084B1B680C4AC6
:100F9C0082FB03129211DB17D31A124A136052E030
:100FAC003C000020A4000020400000209C000020F9
:100FBC0044000020B80000208400002000080140FC
:100FCC00D34D6210A00000207C000020B000002057
:100FDC00B400002088000020940000208000002035
:100FEC0098000020AC00002000224FF4007118483B
:100FFC0000F09DFF01224FF48071154800F097FF1F
:10100C0001228021124800F092FF124B1B68124AF9
:10101C00126811461846FFF71DFC0E4B1B68002B7F
:10102C0013DC0E4B03221A600D4B1B680D4A82FB1E
:10103C0003129211DB17D31A0B4A136005E000BFA1
:10104C0004E000BF02E000BF00E000BF00BF80BDB5
:10105C0000080140AC000020800000208800002027
:10106C00A4000020D34D62109400002080B500AF86
:10107C00154B1B680E2B19D00E2B21DC0C2B02D020
:10108C000D2B0AD01CE04021104800F068FF4FF4F3
:10109C0000710E4800F063FF13E010210B4800F0C4
:1010AC005EFF8021094800F05AFF0AE02021074822
:1010BC0000F055FF4FF48071044800F050FF00E041
:1010CC0000BF00BF80BD00BF8C00002000080140A5
:1010DC0080B500AF8F4B1B68013B0D2B00F20E81CE
:1010EC0001A252F823F000BF2D11000809130008CB
:1010FC000913000809130008091300080913000854
:10110C000913000809130008091300080913000843
:10111C000913000859110008D711000855120008CE
:10112C00FFF7F8FDFFF726FC0346012B40F0E880A3
:10113C00784B0C221A60784B1B68784A82FB03129E
:10114C009211DB17D31A764A1360D9E001222021C1
:10115C00744800F0ECFE01221021724800F0E7FE0A
:10116C0001224FF480716F4800F0E1FE01228021D2
:10117C006C4800F0DCFE6A4B1B686B4A1268114627
:10118C001846FFF7AFFB694B1B6819460220FFF7A7
:10119C0061FB61496248FEF7D3FF5F496048FEF787
:1011AC00E9FFFFF7E7FB0346012B40F0AB80594BFF
:1011BC000D221A605E4B1B68584A82FB0312921177
:1011CC00DB17D31A5B4A13609CE00122202155489F
:1011DC0000F0ADFE01224021524800F0A8FE012291
:1011EC004FF480714F4800F0A2FE01224FF40071C1
:1011FC004C4800F09CFE4F4B1B684B4A1268114642
:10120C001846FFF76FFB494B1B6819460320FFF785
:10121C0021FB47494748FEF793FF45494548FEF7F0
:10122C00A9FFFFF7A7FB0346012B6DD1394B0E220B
:10123C001A60414B1B68394A82FB03129211DB176F
:10124C00D31A3E4A13605FE001224021354800F07A
:10125C006EFE01221021334800F069FE01224FF48A
:10126C000071304800F063FE012280212D4800F00F
:10127C005EFE324B1B682C4A126811461846FFF76B
:10128C0031FB2A4B1B6819460420FFF7E3FA2A4965
:10129C002A48FEF755FF28492848FEF76BFFFFF751
:1012AC0069FB0346012B31D11A4B01221A60244BE6
:1012BC0001221A60234B01221A6001224021194895
:1012CC0000F035FE01222021164800F030FE0122EC
:1012DC001021144800F02BFE01224FF4007111482C
:1012EC0000F025FE01224FF480710E4800F01FFE25
:1012FC00012280210B4800F01AFE07E000BF06E037
:10130C0000BF04E000BF02E000BF00E000BF00BF70
:10131C0080BD00BF8C00002040000020D34D621027
:10132C00C4000020000801407C0000208000002048
:10133C003C000020C000002044000020C800002019
:10134C00840000208800002080B500AF00F0EEFA89
:10135C0000F03AF800F0C0F800F072F8124801F012
:10136C0043FA4FF47A720021104800F029F9FA225E
:10137C0000210F4800F024F9FA2200210D4800F05A
:10138C001FF9FA2200210C4800F01AF90B4B01222C
:10139C001A600B4B01221A600A4B01221A60FFF7EC
:1013AC0097FE00F0CDF9FAE7CC000020E50B000821
:1013BC00D10C0008F90C00087910000884000020FA
:1013CC00880000208C00002080B590B000AF07F1A1
:1013DC00180328220021184601F0B6FD3B1D0022FF
:1013EC001A605A609A60DA601A610223BB610123A9
:1013FC00BB621023FB6200237B6307F118031846C2
:10140C0000F0C6FD0346002B01D000F0D3F80F23EB
:10141C007B600023BB600023FB6000233B61002347
:10142C007B613B1D0021184601F032F80346002B6E
:10143C0001D000F0BFF800BF4037BD4680BD0000B2
:10144C0080B586B000AF07F1080300221A605A601D
:10145C009A60DA603B4600221A605A601D4B4FF0CE
:10146C0080421A601B4B41F63F725A60194B0022A6
:10147C009A60184B0922DA60164B00221A61154B40
:10148C0000229A61134801F05FF90346002B01D04A
:10149C0000F090F84FF48053BB6007F10803194635
:1014AC000C4801F0DDFA0346002B01D000F082F865
:1014BC0000233B6000237B603B461946054801F046
:1014CC00B5FC0346002B01D000F074F800BF1837B0
:1014DC00BD4680BDCC00002080B586B000AF07F1C2
:1014EC00080300221A605A609A60DA60284B9B69E4
:1014FC00274A43F004039361254B9B6903F00403D3
:10150C007B607B68224B9B69214A43F00803936103
:10151C001F4B9B6903F008033B603B6800224FF6AE
:10152C00F0711C4800F003FD00224FF2FF011A4835
:10153C0000F0FDFC0E23BB600023FB6001233B612C
:10154C0007F108031946134800F060FB4FF6F073DF
:10155C00BB600123FB6000233B6102237B6107F12D
:10156C00080319460B4800F051FB4FF2FF03BB6018
:10157C000123FB6000233B6102237B6107F108031D
:10158C001946054800F042FB00BF1837BD4680BD28
:10159C000010024000080140000C014080B582B0F0
:1015AC0000AF786000F06CF8FFF73EFA00BF083728
:1015BC00BD4680BD80B400AF72B600BFFEE7000030
:1015CC0080B485B000AFF860B9607A60294B1B78A5
:1015DC00272B4AD8274B1B781946274A0B469B00CA
:1015EC000B449B001344FA681A60224B1B78184674
:1015FC00BB68224AA2FB0323DA081F4903469B005F
:10160C0003449B000B4404331A601A4B1B78184696
:10161C007B681A4AA2FB0323DA08174903469B008E
:10162C0003449B000B4408331A60124B1B78194679
:10163C00114A0B469B000B449B0013440C330022B5
:10164C001A700C4B1A780B4B1B78194610460A4A29
:10165C000B469B000B449B00134410331860054B46
:10166C001B780133DAB2034B1A7000BF1437BD4636
:10167C0080BC70479000002014010020CDCCCCCC55
:10168C0080B483B000AF00237B6048E02A497A68BD
:10169C0013469B0013449B000B4404331B68002B24
:1016AC0013D025497A6813469B0013449B000B44C6
:1016BC0004331B68591E20487A6813469B00134458
:1016CC009B0003440433196026E01B497A681346D7
:1016DC009B0013449B000B440833196816487A6826
:1016EC0013469B0013449B000344043319601249B6
:1016FC007A6813469B0013449B000B440C331B78F5
:10170C000133D8B20C497A6813469B0013449B00F2
:10171C000B440C3302461A707B6801337B60074B19
:10172C001B781A467B689342B0DB00BF00BF0C37B6
:10173C00BD4680BC704700BF140100209000002003
:10174C0080B582B000AF00237B602BE01B497A6828
:10175C0013469B0013449B000B440C331B78002B4B
:10176C001DD016497A6813469B0013449B000B440A
:10177C000C331B78013BD8B210497A6813469B0096
:10178C0013449B000B440C3302461A700B497A68C5
:10179C0013469B0013449B000B441B6898477B68C3
:1017AC0001337B60064B1B781A467B689342CDDB7A
:1017BC0000BF00BF0837BD4680BD00BF140100202C
:1017CC009000002080B485B000AF154B9B69144A83
:1017DC0043F001039361124B9B6903F00103BB605F
:1017EC00BB680F4BDB690E4A43F08053D3610C4B43
:1017FC00DB6903F080537B607B680A4B5B68FB60A2
:10180C00FB6823F0E063FB60FB6843F08063FB60E4
:10181C00044AFB68536000BF1437BD4680BC704758
:10182C00001002400000014080B584B000AF786029
:10183C007B681B68B3F1804F13D10C4BDB690B4AEF
:10184C0043F00103D361094BDB6903F00103FB6037
:10185C00FB68002200211C2000F0A1F91C2000F0E4
:10186C00BAF900BF1037BD4680BD00BF0010024062
:10187C0080B400AFFEE780B400AFFEE780B400AFE9
:10188C00FEE780B400AFFEE780B400AFFEE780B4A3
:10189C0000AF00BFBD4680BC704780B400AF00BF36
:1018AC00BD4680BC704780B400AF00BFBD4680BC55
:1018BC00704780B500AF00F07FF800BF80BD00001E
:1018CC0080B500AF024800F0DBFF00BF80BD00BF59
:1018DC00CC00002080B400AF00BFBD4680BC704778
:1018EC00FFF7F8FF0B480C490C4A002302E0D458D0
:1018FC00C4500433C4188C42F9D3094A094C002350
:10190C0001E013600432A242FBD301F0F9FAFFF7B5
:10191C001BFD70470000002054000020A82F000879
:10192C005400002038040020FEE7000080B500AF12
:10193C00084B1B68074A43F010031360032000F0A8
:10194C0023F90F2000F008F8FFF73CFF002318469E
:10195C0080BD00BF0020024080B582B000AF78602F
:10196C00124B1A68124B1B7819464FF47A73B3FB5F
:10197C00F1F3B2FBF3F3184600F03BF90346002BEE
:10198C0001D001230EE07B680F2B0AD80022796866
:10199C004FF0FF3000F003F9064A7B681360002318
:1019AC0000E0012318460837BD4680BD48000020E2
:1019BC00500000204C00002080B400AF054B1B7879
:1019CC001A46054B1B681344034A136000BFBD46FF
:1019DC0080BC7047500000203404002080B400AF5D
:1019EC00024B1B681846BD4680BC7047340400206F
:1019FC0080B485B000AF78607B6803F00703FB60B0
:101A0C000C4BDB68BB60BA684FF6FF031340BB603E
:101A1C00FB681A02BB68134343F0BF6343F4003303
:101A2C00BB60044ABB68D36000BF1437BD4680BCA2
:101A3C00704700BF00ED00E080B400AF044BDB68E2
:101A4C001B0A03F007031846BD4680BC704700BF55
:101A5C0000ED00E080B483B000AF0346FB7197F952
:101A6C000730002B0BDBFB7903F01F02064997F9BB
:101A7C0007305B09012000FA02F241F8232000BF75
:101A8C000C37BD4680BC704700E100E080B483B0E9
:101A9C0000AF03463960FB7197F90730002B0ADB66
:101AAC003B68DAB20C4997F907301201D2B20B44F9
:101ABC0083F800230AE03B68DAB20849FB7903F0AB
:101ACC000F03043B1201D2B20B441A7600BF0C3741
:101ADC00BD4680BC704700BF00E100E000ED00E0B7
:101AEC0080B489B000AFF860B9607A60FB6803F02D
:101AFC000703FB61FB69C3F10703042B28BF042315
:101B0C00BB61FB690433062B02D9FB69033B00E084
:101B1C0000237B614FF0FF32BB6902FA03F3DA4317
:101B2C00BB681A407B699A404FF0FF317B6901FA20
:101B3C0003F3D9437B680B40134318462437BD4647
:101B4C0080BC704780B582B000AF78607B68013B89
:101B5C00B3F1807F01D301230FE00A4A7B68013B7C
:101B6C0053600F214FF0FF30FFF790FF054B002221
:101B7C009A60044B07221A60002318460837BD46AA
:101B8C0080BD00BF10E000E080B582B000AF78608F
:101B9C007868FFF72DFF00BF0837BD4680BD80B5C4
:101BAC0086B000AF0346B9607A60FB7300237B619B
:101BBC00FFF742FF78617A68B9687869FFF790FFA0
:101BCC00024697F90F3011461846FFF75FFF00BF2A
:101BDC001837BD4680BD80B582B000AF0346FB719F
:101BEC0097F907301846FFF735FF00BF0837BD4699
:101BFC0080BD80B582B000AF78607868FFF7A2FF37
:101C0C00034618460837BD4680BD000080B48BB033
:101C1C0000AF7860396000237B6200233B6248E1AF
:101C2C0001227B6A02FA03F3FB613B681B68FA69C9
:101C3C001340BB61BA69FB699A4240F037813B683B
:101C4C005B68A34A93425ED0A14A934275D8A14ADD
:101C5C00934258D09F4A93426FD89F4A934252D096
:101C6C009D4A934269D89D4A93424CD09B4A9342D9
:101C7C0063D89B4A934246D0994A93425DD8122B23
:101C8C002AD8122B59D801A252F823F0131D0008A0
:101C9C00ED1C0008FF1C0008411D0008471D000832
:101CAC00471D0008471D0008471D0008471D000878
:101CBC00471D0008471D0008471D0008471D000868
:101CCC00471D0008471D0008471D0008471D000858
:101CDC00F51C0008091D0008824A934213D02CE021
:101CEC003B68DB683B6229E03B68DB6804333B62A2
:101CFC0024E03B68DB6808333B621FE03B68DB6831
:101D0C000C333B621AE03B689B68002B02D1042326
:101D1C003B6213E03B689B68012B05D108233B62B7
:101D2C007B68FA691A6109E008233B627B68FA69EF
:101D3C005A6103E000233B6200E000BFBB69FF2B4C
:101D4C0001D87B6801E07B6804337B61BB69FF2BA6
:101D5C0002D87B6A9B0002E07B6A083B9B003B61DC
:101D6C007B691A680F213B6901FA03F3DB431A40C4
:101D7C00396A3B6901FA03F31A437B691A603B68C1
:101D8C005B6803F08053002B00F09080564B9B69EE
:101D9C00554A43F001039361534B9B6903F00103D4
:101DAC00BB60BB68514A7B6A9B08023352F82330F4
:101DBC00FB607B6A03F003039B000F2202FA03F320
:101DCC00DB43FA681340FB607B68494A93420DD0B1
:101DDC007B68484A934207D07B68474A934201D1BB
:101DEC00022304E0032302E0012300E000237A6ACB
:101DFC0002F0030292009340FA681343FB603B49E4
:101E0C007B6A9B080233FA6841F823203B685B68C5
:101E1C0003F48013002B06D0384B9A683749BB6902
:101E2C0013438B6006E0354B9A68BB69DB4333493F
:101E3C0013408B603B685B6803F40013002B06D0E7
:101E4C002E4BDA682D49BB691343CB6006E02B4B54
:101E5C00DA68BB69DB4329491340CB603B685B689C
:101E6C0003F40033002B06D0244B5A682349BB697A
:101E7C0013434B6006E0214B5A68BB69DB431F4997
:101E8C0013404B603B685B6803F48033002B06D037
:101E9C001A4B1A681949BB6913430B6006E0174BC0
:101EAC001A68BB69DB43154913400B607B6A01332D
:101EBC007B623B681A687B6A22FA03F3002B7FF47F
:101ECC00AFAE00BF00BF2C37BD4680BC704700BF13
:101EDC000000321000003110000022100000211010
:101EEC000000121000001110001002400000014010
:101EFC0000080140000C01400010014000040140AA
:101F0C0080B485B000AF78600B467B807B689A68A4
:101F1C007B881340002B02D00123FB7301E00023CC
:101F2C00FB73FB7B18461437BD4680BC704780B4EE
:101F3C0083B000AF78600B467B8013467B707B7858
:101F4C00002B03D07A887B681A6103E07B881A0423
:101F5C007B681A6100BF0C37BD4680BC704780B4EB
:101F6C0085B000AF78600B467B807B68DB68FB60DC
:101F7C007A88FB6813401A04FB68D9437B880B40B2
:101F8C001A437B681A6100BF1437BD4680BC70478A
:101F9C0080B586B000AF78607B68002B01D101233F
:101FAC006CE27B681B6803F00103002B00F0878058
:101FBC00924B5B6803F00C03042B0CD08F4B5B68CB
:101FCC0003F00C03082B12D18C4B5B6803F48033A9
:101FDC00B3F5803F0BD1894B1B6803F40033002B06
:101FEC006CD07B685B68002B68D1012346E27B6870
:101FFC005B68B3F5803F06D1804B1B687F4A43F486
:10200C00803313602EE07B685B68002B0CD17B4B1C
:10201C001B687A4A23F480331360784B1B68774A29
:10202C0023F4802313601DE07B685B68B3F5A02F5D
:10203C000CD1724B1B68714A43F4802313606F4BB5
:10204C001B686E4A43F4803313600BE06B4B1B68C8
:10205C006A4A23F480331360684B1B68674A23F485
:10206C00802313607B685B68002B13D0FFF7B6FCF2
:10207C00386108E0FFF7B2FC02463B69D31A642BC7
:10208C0001D90323FAE15D4B1B6803F40033002BE9
:10209C00F0D014E0FFF7A2FC386108E0FFF79EFCDB
:1020AC0002463B69D31A642B01D90323E6E1534B57
:1020BC001B6803F40033002BF0D100E000BF7B68F9
:1020CC001B6803F00203002B63D04C4B5B6803F0DE
:1020DC000C03002B0BD0494B5B6803F00C03082B53
:1020EC001CD1464B5B6803F48033002B16D1434B59
:1020FC001B6803F00203002B05D07B681B69012BC6
:10210C0001D00123BAE13D4B1B6823F0F8027B6838
:10211C005B69DB00394913430B603AE07B681B6950
:10212C00002B20D0364B01221A60FFF757FC386188
:10213C0008E0FFF753FC02463B69D31A022B01D986
:10214C0003239BE12D4B1B6803F00203002BF0D003
:10215C002A4B1B6823F0F8027B685B69DB0027497C
:10216C0013430B6015E0264B00221A60FFF736FC78
:10217C00386108E0FFF732FC02463B69D31A022BA8
:10218C0001D903237AE11D4B1B6803F00203002BDA
:10219C00F0D17B681B6803F00803002B3AD07B68F6
:1021AC009B69002B19D0174B01221A60FFF716FC04
:1021BC00386108E0FFF712FC02463B69D31A022B88
:1021CC0001D903235AE10D4B5B6A03F00203002B88
:1021DC00F0D0012000F09AFA1CE00A4B00221A60A1
:1021EC00FFF7FCFB38610FE0FFF7F8FB02463B6999
:1021FC00D31A022B08D9032340E100BF0010024080
:10220C0000004242800442429E4B5B6A03F0020390
:10221C00002BE9D17B681B6803F00403002B00F052
:10222C00A6800023FB75974BDB6903F08053002BD2
:10223C000DD1944BDB69934A43F08053D361914B9E
:10224C00DB6903F08053BB60BB680123FB758E4BCD
:10225C001B6803F48073002B18D18B4B1B688A4AC4
:10226C0043F480731360FFF7B9FB386108E0FFF7A4
:10227C00B5FB02463B69D31A642B01D90323FDE05D
:10228C00814B1B6803F48073002BF0D07B68DB68F8
:10229C00012B06D17B4B1B6A7A4A43F00103136274
:1022AC002DE07B68DB68002B0CD1764B1B6A754AE2
:1022BC0023F001031362734B1B6A724A23F004036D
:1022CC0013621CE07B68DB68052B0CD16D4B1B6A21
:1022DC006C4A43F0040313626A4B1B6A694A43F06D
:1022EC00010313620BE0674B1B6A664A23F0010380
:1022FC001362644B1B6A634A23F0040313627B680A
:10230C00DB68002B15D0FFF769FB38610AE0FFF79B
:10231C0065FB02463B69D31A41F28832934201D9DC
:10232C000323ABE0574B1B6A03F00203002BEED0E8
:10233C0014E0FFF753FB38610AE0FFF74FFB02464E
:10234C003B69D31A41F28832934201D9032395E0B9
:10235C004C4B1B6A03F00203002BEED1FB7D012BCF
:10236C0005D1484BDB69474A23F08053D3617B6826
:10237C00DB69002B00F08180424B5B6803F00C039F
:10238C00082B61D07B68DB69022B46D13F4B0022C6
:10239C001A60FFF723FB386108E0FFF71FFB0246CA
:1023AC003B69D31A022B01D9032367E0354B1B6819
:1023BC0003F00073002BF0D17B681B6AB3F5803FF0
:1023CC0008D1304B5B6823F400327B689B682D4945
:1023DC0013434B602B4B5B6823F474127B68196AB4
:1023EC007B685B6A0B43274913434B60274B0122E5
:1023FC001A60FFF7F3FA386108E0FFF7EFFA0246CC
:10240C003B69D31A022B01D9032337E01D4B1B6800
:10241C0003F00073002BF0D02FE01C4B00221A604D
:10242C00FFF7DCFA386108E0FFF7D8FA02463B699F
:10243C00D31A022B01D9032320E0124B1B6803F0A3
:10244C000073002BF0D118E07B68DB69012B01D104
:10245C00012313E00B4B5B68FB60FB6803F48032D9
:10246C007B681B6A9A4206D1FB6803F470127B6886
:10247C005B6A9A4201D0012300E00023184618370A
:10248C00BD4680BD0010024000700040600042421A
:10249C0080B584B000AF786039607B68002B01D1C7
:1024AC000123D0E06A4B1B6803F007033A689A4299
:1024BC0010D9674B1B6823F0070265493B6813432F
:1024CC000B60634B1B6803F007033A689A4201D018
:1024DC000123B8E07B681B6803F00203002B20D0BB
:1024EC007B681B6803F00403002B05D0594B5B6819
:1024FC00584A43F4E06353607B681B6803F008039D
:10250C00002B05D0534B5B68524A43F46053536025
:10251C00504B5B6823F0F0027B689B684D4913437A
:10252C004B607B681B6803F00103002B40D07B6879
:10253C005B68012B07D1474B1B6803F40033002B5E
:10254C0015D101237FE07B685B68022B07D1414BDF
:10255C001B6803F00073002B09D1012373E03D4B82
:10256C001B6803F00203002B01D101236BE0394BF4
:10257C005B6823F003027B685B68364913434B604E
:10258C00FFF72CFAF8600AE0FFF728FA0246FB681E
:10259C00D31A41F28832934201D9032353E02D4BD5
:1025AC005B6803F00C027B685B689B009A42EBD182
:1025BC00274B1B6803F007033A689A4210D2244B4E
:1025CC001B6823F0070222493B6813430B60204B26
:1025DC001B6803F007033A689A4201D0012332E0EA
:1025EC007B681B6803F00403002B08D0194B5B6855
:1025FC0023F4E0627B68DB68164913434B607B680D
:10260C001B6803F00803002B09D0124B5B6823F402
:10261C0060527B681B69DB000E4913434B6000F072
:10262C0021F802460B4B5B681B0903F00F030A49A8
:10263C00CB5C22FA03F3094A1360094B1B6818465A
:10264C00FFF78AF9002318461037BD4680BD00BF3E
:10265C0000200240001002407C2F0008480000209F
:10266C004C00002080B487B000AF0023FB60002337
:10267C00BB6000237B6100237B6000233B611E4B0E
:10268C005B68FB60FB6803F00C03042B02D0082B87
:10269C0003D027E0194B3B6127E0FB689B0C03F050
:1026AC000F03174AD35C7B60FB6803F48033002B69
:1026BC0010D0114B5B685B0C03F00103114AD35C27
:1026CC00BB607B680D4A02FB03F2BB68B2FBF3F301
:1026DC007B6104E07B680C4A02FB03F37B617B6942
:1026EC003B6102E0054B3B6100BF3B6918461C3760
:1026FC00BD4680BC704700BF0010024000127A003B
:10270C008C2F00089C2F000800093D0080B485B078
:10271C0000AF78600A4B1B680A4AA2FB03235B0AD2
:10272C007A6802FB03F3FB6000BFFB685A1EFA6079
:10273C00002BF9D100BF00BF1437BD4680BC7047D9
:10274C0048000020D34D621080B582B000AF786095
:10275C007B68002B01D1012341E07B6893F83D306D
:10276C00DBB2002B06D17B68002283F83C20786812
:10277C00FFF75AF87B68022283F83D207B681A68C1
:10278C007B6804331946104600F056FA7B68012228
:10279C0083F846207B68012283F83E207B68012267
:1027AC0083F83F207B68012283F840207B6801225C
:1027BC0083F841207B68012283F842207B68012248
:1027CC0083F843207B68012283F844207B68012234
:1027DC0083F845207B68012283F83D2000231846AE
:1027EC000837BD4680BD000080B485B000AF78606E
:1027FC007B6893F83D30DBB2012B01D0012335E02F
:10280C007B68022283F83D207B681B68DA687B6852
:10281C001B6842F00102DA607B681B68164A93421F
:10282C0009D07B681B68B3F1804F04D07B681B68B0
:10283C00124A934211D17B681B689B6803F0070313
:10284C00FB60FB68062B10D07B681B681A687B68E2
:10285C001B6842F001021A6007E07B681B681A686B
:10286C007B681B6842F001021A600023184614377B
:10287C00BD4680BC704700BF002C014000040040E6
:10288C0080B584B000AF78607B681B68DB68FB6048
:10289C007B681B681B69BB60BB6803F00203002BE1
:1028AC0020D0FB6803F00203002B1BD07B681B6855
:1028BC006FF002021A617B6801221A777B681B6831
:1028CC009B6903F00303002B03D0786800F098F9A0
:1028DC0005E0786800F08BF9786800F09AF97B686D
:1028EC0000221A77BB6803F00403002B20D0FB688E
:1028FC0003F00403002B1BD07B681B686FF00402F1
:10290C001A617B6802221A777B681B689B6903F447
:10291C004073002B03D0786800F072F905E07868FA
:10292C0000F065F9786800F074F97B6800221A777A
:10293C00BB6803F00803002B20D0FB6803F00803EE
:10294C00002B1BD07B681B686FF008021A617B6838
:10295C0004221A777B681B68DB6903F00303002BE6
:10296C0003D0786800F04CF905E0786800F03FF986
:10297C00786800F04EF97B6800221A77BB6803F088
:10298C001003002B20D0FB6803F01003002B1BD08E
:10299C007B681B686FF010021A617B6808221A773B
:1029AC007B681B68DB6903F44073002B03D07868E9
:1029BC0000F026F905E0786800F019F9786800F065
:1029CC0028F97B6800221A77BB6803F00103002BFF
:1029DC000CD0FB6803F00103002B07D07B681B684D
:1029EC006FF001021A617868FEF7D8FDBB6803F03E
:1029FC008003002B0CD0FB6803F08003002B07D066
:102A0C007B681B686FF080021A61786800F06FFABF
:102A1C00BB6803F04003002B0CD0FB6803F04003B1
:102A2C00002B07D07B681B686FF040021A61786836
:102A3C0000F0F8F8BB6803F02003002B0CD0FB6807
:102A4C0003F02003002B07D07B681B686FF020027B
:102A5C001A61786800F042FA00BF1037BD4680BD9D
:102A6C0080B584B000AF786039600023FB737B685D
:102A7C0093F83C30012B01D10223B4E07B68012296
:102A8C0083F83C207B68022283F83D207B681B681E
:102A9C009B68BB60BB6823F07703BB60BB6823F407
:102AAC007F43BB607B681B68BA689A603B681B6895
:102ABC00B3F5005F3ED0B3F5005F00F28780B3F54D
:102ACC00805F00F08680B3F5805F7FD8702B1AD0C2
:102ADC00702B7BD8602B50D0602B77D8502B3CD0F0
:102AEC00502B73D8402B58D0402B6FD8302B64D040
:102AFC00302B6BD8202B60D0202B67D8002B5CD0D0
:102B0C00102B5AD062E07B6818683B6899683B6868
:102B1C005A683B68DB6800F06AF97B681B689B6845
:102B2C00BB60BB6843F07703BB607B681B68BA680B
:102B3C009A604FE07B6818683B6899683B685A68F4
:102B4C003B68DB6800F053F97B681B689A687B680C
:102B5C001B6842F480429A603CE07B6818683B68D2
:102B6C0059683B68DB681A4600F0CAF87B681B683A
:102B7C005021184600F021F92CE07B6818683B685E
:102B8C0059683B68DB681A4600F0E8F87B681B68FC
:102B9C006021184600F011F91CE07B6818683B684E
:102BAC0059683B68DB681A4600F0AAF87B681B681A
:102BBC004021184600F001F90CE07B681A683B686C
:102BCC001B681946104600F0F8F803E00123FB736C
:102BDC0000E000BF7B68012283F83D207B68002267
:102BEC0083F83C20FB7B18461037BD4680BD80B473
:102BFC0083B000AF786000BF0C37BD4680BC704717
:102C0C0080B483B000AF786000BF0C37BD4680BC89
:102C1C00704780B483B000AF786000BF0C37BD46FE
:102C2C0080BC704780B483B000AF786000BF0C37B5
:102C3C00BD4680BC7047000080B485B000AF7860A2
:102C4C0039607B681B68FB607B682B4A934207D01A
:102C5C007B68B3F1804F03D07B68284A934208D13C
:102C6C00FB6823F07003FB603B685B68FA681343F6
:102C7C00FB607B68204A934207D07B68B3F1804F9E
:102C8C0003D07B681D4A934208D1FB6823F4407340
:102C9C00FB603B68DB68FA681343FB60FB6823F05E
:102CAC0080023B685B691343FB607B68FA681A60BF
:102CBC003B689A687B68DA623B681A687B689A6240
:102CCC007B680D4A934203D13B681A697B681A638F
:102CDC007B6801225A617B681B6903F00103002B9E
:102CEC0005D07B681B6923F001027B681A6100BF69
:102CFC001437BD4680BC7047002C014000040040D6
:102D0C0080B487B000AFF860B9607A60FB681B6A6A
:102D1C007B61FB681B6A23F00102FB681A62FB688B
:102D2C009B693B613B6923F0F0033B617B681B01B2
:102D3C003A6913433B617B6923F00A037B617A692F
:102D4C00BB6813437B61FB683A699A61FB687A69DB
:102D5C001A6200BF1C37BD4680BC704780B487B078
:102D6C0000AFF860B9607A60FB681B6A7B61FB6836
:102D7C001B6A23F01002FB681A62FB689B693B61BB
:102D8C003B6923F470433B617B681B033A69134333
:102D9C003B617B6923F0A0037B61BB681B017A69F3
:102DAC0013437B61FB683A699A61FB687A691A6222
:102DBC0000BF1C37BD4680BC704780B485B000AFE7
:102DCC00786039607B689B68FB60FB6823F070035C
:102DDC00FB603A68FB68134343F00703FB607B68B6
:102DEC00FA689A6000BF1437BD4680BC704780B447
:102DFC0087B000AFF860B9607A603B60FB689B6895
:102E0C007B617B6923F47F437B613B681A027B689F
:102E1C001A43BB6813437A6913437B61FB687A6975
:102E2C009A6000BF1C37BD4680BC704780B485B02B
:102E3C0000AF786039607B6893F83C30012B01D18E
:102E4C00022341E07B68012283F83C207B6802224C
:102E5C0083F83D207B681B685B68FB607B681B68A4
:102E6C009B68BB60FB6823F07003FB603B681B68CE
:102E7C00FA681343FB607B681B68FA685A607B68CE
:102E8C001B68144A934209D07B681B68B3F1804FCE
:102E9C0004D07B681B68104A93420CD1BB6823F0AA
:102EAC008003BB603B685B68BA681343BB607B689C
:102EBC001B68BA689A607B68012283F83D207B68A6
:102ECC00002283F83C20002318461437BD4680BCF2
:102EDC00704700BF002C01400004004080B483B058
:102EEC0000AF786000BF0C37BD4680BC704780B423
:102EFC0083B000AF786000BF0C37BD4680BC704714
:102F0C0070B500260C4D0D4C641BA410A64209D1C3
:102F1C0000F022F800260A4D0A4C641BA410A642AD
:102F2C0005D170BD55F8043B98470136EEE755F8CE
:102F3C00043B98470136F2E7A02F0008A02F0008A9
:102F4C00A02F0008A42F000803460244934200D18E
:102F5C00704703F8011BF9E7F8B500BFF8BC08BCD3
:102F6C009E467047F8B500BFF8BC08BC9E4670473B
:102F7C00000000000000000001020304060708091D
:102F8C0002030405060708090A0B0C0D0E0F10109E
:042F9C00010200002E
:042FA00031010008F3
:042FA4000D01000813
:102FA8000100000001000000010000000100000015
:102FB8000100000001000000010000000100000005
:102FC80001000000010000000100000001000000F5
:102FD800C8000000C8000000C8000000B80B0000CE
:102FE80088130000D007000000127A0010000000CB
:042FF80001000000D4
:04000005080018EDEA
:00000001FF
